{
  "contractName": "HelloEthSalon",
  "abi": [
    {
      "inputs": [],
      "payable": false,
      "stateMutability": "nonpayable",
      "type": "constructor"
    },
    {
      "constant": true,
      "inputs": [],
      "name": "getMessage",
      "outputs": [
        {
          "name": "",
          "type": "string"
        }
      ],
      "payable": false,
      "stateMutability": "view",
      "type": "function"
    }
  ],
  "bytecode": "0x60806040526040805190810160405280601581526020017f48656c6c6f20457468657265756d2053616c6f6e2100000000000000000000008152506000908051906020019061004f9291906100ae565b5034801561005c57600080fd5b506040805190810160405280600181526020017f2000000000000000000000000000000000000000000000000000000000000000815250600090805190602001906100a89291906100ae565b50610153565b828054600181600116156101000203166002900490600052602060002090601f016020900481019282601f106100ef57805160ff191683800117855561011d565b8280016001018555821561011d579182015b8281111561011c578251825591602001919060010190610101565b5b50905061012a919061012e565b5090565b61015091905b8082111561014c576000816000905550600101610134565b5090565b90565b6101a4806101626000396000f3fe608060405260043610610041576000357c0100000000000000000000000000000000000000000000000000000000900463ffffffff168063ce6d41de14610046575b600080fd5b34801561005257600080fd5b5061005b6100d6565b6040518080602001828103825283818151815260200191508051906020019080838360005b8381101561009b578082015181840152602081019050610080565b50505050905090810190601f1680156100c85780820380516001836020036101000a031916815260200191505b509250505060405180910390f35b606060008054600181600116156101000203166002900480601f01602080910402602001604051908101604052809291908181526020018280546001816001161561010002031660029004801561016e5780601f106101435761010080835404028352916020019161016e565b820191906000526020600020905b81548152906001019060200180831161015157829003601f168201915b505050505090509056fea165627a7a72305820d4aac3e8c15414fa06e97f72af86d2d038fbf274d40ffb28d55a93a56f7c437c0029",
  "source": "pragma solidity ^0.5.0;\n\n\ncontract HelloEthSalon {\nstring message = \"Hello Ethereum Salon!\";\n  constructor() public {\n    message = \" \";\n  }\n  function getMessage() public view returns(string memory){\n    return message;\n}\n}\n",
  "sourcePath": "/Users/nikhitak/hello-ethereum-salon-contract/contracts/HelloEthSalon.sol",
  "compiler": {
    "name": "solc",
    "version": "0.5.0+commit.1d4f565a.Emscripten.clang"
  },
  "schemaVersion": "3.0.2",
  "updatedAt": "2019-03-10T03:15:25.293Z",
  "devdoc": {
    "methods": {}
  },
  "userdoc": {
    "methods": {}
  }
}